{
  "_format": "hh-sol-artifact-1",
  "contractName": "Supplychain",
  "sourceName": "contracts/Supplychain.sol",
  "abi": [
    {
      "inputs": [],
      "stateMutability": "nonpayable",
      "type": "constructor"
    },
    {
      "anonymous": false,
      "inputs": [
        {
          "indexed": true,
          "internalType": "address",
          "name": "sender",
          "type": "address"
        },
        {
          "indexed": true,
          "internalType": "address",
          "name": "reciever",
          "type": "address"
        },
        {
          "indexed": false,
          "internalType": "uint256",
          "name": "pickupTime",
          "type": "uint256"
        },
        {
          "indexed": false,
          "internalType": "uint256",
          "name": "distance",
          "type": "uint256"
        },
        {
          "indexed": false,
          "internalType": "uint256",
          "name": "price",
          "type": "uint256"
        }
      ],
      "name": "ShipmentCreated",
      "type": "event"
    },
    {
      "anonymous": false,
      "inputs": [
        {
          "indexed": true,
          "internalType": "address",
          "name": "sender",
          "type": "address"
        },
        {
          "indexed": true,
          "internalType": "address",
          "name": "reciever",
          "type": "address"
        },
        {
          "indexed": false,
          "internalType": "uint256",
          "name": "deliveryTime",
          "type": "uint256"
        }
      ],
      "name": "ShipmentDelivered",
      "type": "event"
    },
    {
      "anonymous": false,
      "inputs": [
        {
          "indexed": true,
          "internalType": "address",
          "name": "sender",
          "type": "address"
        },
        {
          "indexed": true,
          "internalType": "address",
          "name": "reciever",
          "type": "address"
        },
        {
          "indexed": false,
          "internalType": "uint256",
          "name": "pickupTime",
          "type": "uint256"
        }
      ],
      "name": "ShipmentInTransit",
      "type": "event"
    },
    {
      "anonymous": false,
      "inputs": [
        {
          "indexed": true,
          "internalType": "address",
          "name": "sender",
          "type": "address"
        },
        {
          "indexed": true,
          "internalType": "address",
          "name": "reciever",
          "type": "address"
        },
        {
          "indexed": false,
          "internalType": "uint256",
          "name": "amount",
          "type": "uint256"
        }
      ],
      "name": "ShipmentPaid",
      "type": "event"
    },
    {
      "inputs": [
        {
          "internalType": "address",
          "name": "_sender",
          "type": "address"
        },
        {
          "internalType": "address",
          "name": "_reciever",
          "type": "address"
        },
        {
          "internalType": "uint256",
          "name": "_index",
          "type": "uint256"
        }
      ],
      "name": "completeShipment",
      "outputs": [],
      "stateMutability": "nonpayable",
      "type": "function"
    },
    {
      "inputs": [
        {
          "internalType": "address",
          "name": "_reciever",
          "type": "address"
        },
        {
          "internalType": "uint256",
          "name": "_pickupTime",
          "type": "uint256"
        },
        {
          "internalType": "uint256",
          "name": "_distance",
          "type": "uint256"
        },
        {
          "internalType": "uint256",
          "name": "_price",
          "type": "uint256"
        }
      ],
      "name": "createShipment",
      "outputs": [],
      "stateMutability": "payable",
      "type": "function"
    },
    {
      "inputs": [],
      "name": "getAllTransactions",
      "outputs": [
        {
          "components": [
            {
              "internalType": "address",
              "name": "sender",
              "type": "address"
            },
            {
              "internalType": "address",
              "name": "reciever",
              "type": "address"
            },
            {
              "internalType": "uint256",
              "name": "pickupTime",
              "type": "uint256"
            },
            {
              "internalType": "uint256",
              "name": "deliveryTime",
              "type": "uint256"
            },
            {
              "internalType": "uint256",
              "name": "distance",
              "type": "uint256"
            },
            {
              "internalType": "uint256",
              "name": "price",
              "type": "uint256"
            },
            {
              "internalType": "enum Supplychain.ShipmentStatus",
              "name": "status",
              "type": "uint8"
            },
            {
              "internalType": "bool",
              "name": "isPaid",
              "type": "bool"
            }
          ],
          "internalType": "struct Supplychain.TyepShipment[]",
          "name": "",
          "type": "tuple[]"
        }
      ],
      "stateMutability": "view",
      "type": "function"
    },
    {
      "inputs": [
        {
          "internalType": "address",
          "name": "_sender",
          "type": "address"
        },
        {
          "internalType": "uint256",
          "name": "_index",
          "type": "uint256"
        }
      ],
      "name": "getShipment",
      "outputs": [
        {
          "internalType": "address",
          "name": "",
          "type": "address"
        },
        {
          "internalType": "address",
          "name": "",
          "type": "address"
        },
        {
          "internalType": "uint256",
          "name": "",
          "type": "uint256"
        },
        {
          "internalType": "uint256",
          "name": "",
          "type": "uint256"
        },
        {
          "internalType": "uint256",
          "name": "",
          "type": "uint256"
        },
        {
          "internalType": "uint256",
          "name": "",
          "type": "uint256"
        },
        {
          "internalType": "enum Supplychain.ShipmentStatus",
          "name": "",
          "type": "uint8"
        },
        {
          "internalType": "bool",
          "name": "",
          "type": "bool"
        }
      ],
      "stateMutability": "view",
      "type": "function"
    },
    {
      "inputs": [
        {
          "internalType": "address",
          "name": "_sender",
          "type": "address"
        }
      ],
      "name": "getShipmentCount",
      "outputs": [
        {
          "internalType": "uint256",
          "name": "",
          "type": "uint256"
        }
      ],
      "stateMutability": "view",
      "type": "function"
    },
    {
      "inputs": [],
      "name": "shipmentCount",
      "outputs": [
        {
          "internalType": "uint256",
          "name": "",
          "type": "uint256"
        }
      ],
      "stateMutability": "view",
      "type": "function"
    },
    {
      "inputs": [
        {
          "internalType": "address",
          "name": "",
          "type": "address"
        },
        {
          "internalType": "uint256",
          "name": "",
          "type": "uint256"
        }
      ],
      "name": "shipments",
      "outputs": [
        {
          "internalType": "address",
          "name": "sender",
          "type": "address"
        },
        {
          "internalType": "address",
          "name": "reciever",
          "type": "address"
        },
        {
          "internalType": "uint256",
          "name": "pickupTime",
          "type": "uint256"
        },
        {
          "internalType": "uint256",
          "name": "deliveryTime",
          "type": "uint256"
        },
        {
          "internalType": "uint256",
          "name": "distance",
          "type": "uint256"
        },
        {
          "internalType": "uint256",
          "name": "price",
          "type": "uint256"
        },
        {
          "internalType": "enum Supplychain.ShipmentStatus",
          "name": "status",
          "type": "uint8"
        },
        {
          "internalType": "bool",
          "name": "isPaid",
          "type": "bool"
        }
      ],
      "stateMutability": "view",
      "type": "function"
    },
    {
      "inputs": [
        {
          "internalType": "address",
          "name": "_sender",
          "type": "address"
        },
        {
          "internalType": "address",
          "name": "_reciever",
          "type": "address"
        },
        {
          "internalType": "uint256",
          "name": "_index",
          "type": "uint256"
        }
      ],
      "name": "startShipment",
      "outputs": [],
      "stateMutability": "nonpayable",
      "type": "function"
    }
  ],
  "bytecode": "0x608060405234801561001057600080fd5b506000600181905550611a2b806100286000396000f3fe60806040526004361061007b5760003560e01c80638365da541161004e5780638365da5414610141578063aace20b714610185578063b7dfd93d146101b0578063cbc4b181146101ed5761007b565b8063179a878c1461008057806327506f53146100a95780635667e02f146100d45780637ff5265d14610118575b600080fd5b34801561008c57600080fd5b506100a760048036038101906100a29190611239565b610209565b005b3480156100b557600080fd5b506100be6105dd565b6040516100cb919061148e565b60405180910390f35b3480156100e057600080fd5b506100fb60048036038101906100f691906114b0565b610767565b60405161010f98979695949392919061152c565b60405180910390f35b34801561012457600080fd5b5061013f600480360381019061013a9190611239565b610826565b005b34801561014d57600080fd5b50610168600480360381019061016391906114b0565b610afa565b60405161017c98979695949392919061152c565b60405180910390f35b34801561019157600080fd5b5061019a610ce4565b6040516101a791906115aa565b60405180910390f35b3480156101bc57600080fd5b506101d760048036038101906101d291906115c5565b610cea565b6040516101e491906115aa565b60405180910390f35b610207600480360381019061020291906115f2565b610d35565b005b60008060008573ffffffffffffffffffffffffffffffffffffffff1673ffffffffffffffffffffffffffffffffffffffff168152602001908152602001600020828154811061025b5761025a611659565b5b9060005260206000209060070201905060006002838154811061028157610280611659565b5b906000526020600020906007020190508373ffffffffffffffffffffffffffffffffffffffff168260010160009054906101000a900473ffffffffffffffffffffffffffffffffffffffff1673ffffffffffffffffffffffffffffffffffffffff1614610323576040517f08c379a000000000000000000000000000000000000000000000000000000000815260040161031a906116e5565b60405180910390fd5b60016002811115610337576103366112d6565b5b8260060160009054906101000a900460ff16600281111561035b5761035a6112d6565b5b1461039b576040517f08c379a000000000000000000000000000000000000000000000000000000000815260040161039290611751565b60405180910390fd5b8160060160019054906101000a900460ff16156103ed576040517f08c379a00000000000000000000000000000000000000000000000000000000081526004016103e4906117bd565b60405180910390fd5b60028260060160006101000a81548160ff02191690836002811115610415576104146112d6565b5b021790555060028160060160006101000a81548160ff02191690836002811115610442576104416112d6565b5b02179055504281600301819055504282600301819055506000826005015490508260000160009054906101000a900473ffffffffffffffffffffffffffffffffffffffff1673ffffffffffffffffffffffffffffffffffffffff166108fc829081150290604051600060405180830381858888f193505050501580156104cc573d6000803e3d6000fd5b5060018360060160016101000a81548160ff02191690831515021790555060018260060160016101000a81548160ff0219169083151502179055508473ffffffffffffffffffffffffffffffffffffffff168673ffffffffffffffffffffffffffffffffffffffff167f3746ccceb54f44c9b0ee0120e596168d07ec9f6ca303cfdd9810d3b2e2686a2e856003015460405161056891906115aa565b60405180910390a38473ffffffffffffffffffffffffffffffffffffffff168673ffffffffffffffffffffffffffffffffffffffff167f2b6f2473aebafaf8d0889669490135928ec4454d2e29a103fd39693bbca6aef1836040516105cd91906115aa565b60405180910390a3505050505050565b60606002805480602002602001604051908101604052809291908181526020016000905b8282101561075e5783829060005260206000209060070201604051806101000160405290816000820160009054906101000a900473ffffffffffffffffffffffffffffffffffffffff1673ffffffffffffffffffffffffffffffffffffffff1673ffffffffffffffffffffffffffffffffffffffff1681526020016001820160009054906101000a900473ffffffffffffffffffffffffffffffffffffffff1673ffffffffffffffffffffffffffffffffffffffff1673ffffffffffffffffffffffffffffffffffffffff168152602001600282015481526020016003820154815260200160048201548152602001600582015481526020016006820160009054906101000a900460ff16600281111561071e5761071d6112d6565b5b60028111156107305761072f6112d6565b5b81526020016006820160019054906101000a900460ff16151515158152505081526020019060010190610601565b50505050905090565b6000602052816000526040600020818154811061078357600080fd5b9060005260206000209060070201600091509150508060000160009054906101000a900473ffffffffffffffffffffffffffffffffffffffff16908060010160009054906101000a900473ffffffffffffffffffffffffffffffffffffffff16908060020154908060030154908060040154908060050154908060060160009054906101000a900460ff16908060060160019054906101000a900460ff16905088565b60008060008573ffffffffffffffffffffffffffffffffffffffff1673ffffffffffffffffffffffffffffffffffffffff168152602001908152602001600020828154811061087857610877611659565b5b906000526020600020906007020190506000600281111561089c5761089b6112d6565b5b8160060160009054906101000a900460ff1660028111156108c0576108bf6112d6565b5b14610900576040517f08c379a00000000000000000000000000000000000000000000000000000000081526004016108f790611829565b60405180910390fd5b60006002838154811061091657610915611659565b5b906000526020600020906007020190508373ffffffffffffffffffffffffffffffffffffffff168260010160009054906101000a900473ffffffffffffffffffffffffffffffffffffffff1673ffffffffffffffffffffffffffffffffffffffff16146109b8576040517f08c379a00000000000000000000000000000000000000000000000000000000081526004016109af906116e5565b60405180910390fd5b600060028111156109cc576109cb6112d6565b5b8260060160009054906101000a900460ff1660028111156109f0576109ef6112d6565b5b14610a30576040517f08c379a0000000000000000000000000000000000000000000000000000000008152600401610a2790611895565b60405180910390fd5b60018260060160006101000a81548160ff02191690836002811115610a5857610a576112d6565b5b021790555060018160060160006101000a81548160ff02191690836002811115610a8557610a846112d6565b5b02179055508373ffffffffffffffffffffffffffffffffffffffff168573ffffffffffffffffffffffffffffffffffffffff167faafab9f94340179ff9cefd29621e1772a4b8efab8023163838f1b0a8f6ce5df58460020154604051610aeb91906115aa565b60405180910390a35050505050565b60008060008060008060008060008060008c73ffffffffffffffffffffffffffffffffffffffff1673ffffffffffffffffffffffffffffffffffffffff1681526020019081526020016000208a81548110610b5857610b57611659565b5b9060005260206000209060070201604051806101000160405290816000820160009054906101000a900473ffffffffffffffffffffffffffffffffffffffff1673ffffffffffffffffffffffffffffffffffffffff1673ffffffffffffffffffffffffffffffffffffffff1681526020016001820160009054906101000a900473ffffffffffffffffffffffffffffffffffffffff1673ffffffffffffffffffffffffffffffffffffffff1673ffffffffffffffffffffffffffffffffffffffff168152602001600282015481526020016003820154815260200160048201548152602001600582015481526020016006820160009054906101000a900460ff166002811115610c6b57610c6a6112d6565b5b6002811115610c7d57610c7c6112d6565b5b81526020016006820160019054906101000a900460ff1615151515815250509050806000015181602001518260400151836060015184608001518560a001518660c001518760e0015198509850985098509850985098509850509295985092959890939650565b60015481565b60008060008373ffffffffffffffffffffffffffffffffffffffff1673ffffffffffffffffffffffffffffffffffffffff168152602001908152602001600020805490509050919050565b803414610d77576040517f08c379a0000000000000000000000000000000000000000000000000000000008152600401610d6e90611927565b60405180910390fd5b60006040518061010001604052803373ffffffffffffffffffffffffffffffffffffffff1681526020018673ffffffffffffffffffffffffffffffffffffffff1681526020018581526020016000815260200184815260200183815260200160006002811115610dea57610de96112d6565b5b81526020016000151581525090506000803373ffffffffffffffffffffffffffffffffffffffff1673ffffffffffffffffffffffffffffffffffffffff16815260200190815260200160002081908060018154018082558091505060019003906000526020600020906007020160009091909190915060008201518160000160006101000a81548173ffffffffffffffffffffffffffffffffffffffff021916908373ffffffffffffffffffffffffffffffffffffffff16021790555060208201518160010160006101000a81548173ffffffffffffffffffffffffffffffffffffffff021916908373ffffffffffffffffffffffffffffffffffffffff16021790555060408201518160020155606082015181600301556080820151816004015560a0820151816005015560c08201518160060160006101000a81548160ff02191690836002811115610f4157610f406112d6565b5b021790555060e08201518160060160016101000a81548160ff021916908315150217905550505060016000815480929190610f7b90611976565b919050555060026040518061010001604052803373ffffffffffffffffffffffffffffffffffffffff1681526020018773ffffffffffffffffffffffffffffffffffffffff1681526020018681526020016000815260200185815260200184815260200160006002811115610ff357610ff26112d6565b5b815260200160001515815250908060018154018082558091505060019003906000526020600020906007020160009091909190915060008201518160000160006101000a81548173ffffffffffffffffffffffffffffffffffffffff021916908373ffffffffffffffffffffffffffffffffffffffff16021790555060208201518160010160006101000a81548173ffffffffffffffffffffffffffffffffffffffff021916908373ffffffffffffffffffffffffffffffffffffffff16021790555060408201518160020155606082015181600301556080820151816004015560a0820151816005015560c08201518160060160006101000a81548160ff02191690836002811115611109576111086112d6565b5b021790555060e08201518160060160016101000a81548160ff02191690831515021790555050508473ffffffffffffffffffffffffffffffffffffffff163373ffffffffffffffffffffffffffffffffffffffff167f5001b34ecf2db5b7bbeddcbbe761ec9ecadcc7638018b98ce3e24995b0e946b6868686604051611191939291906119be565b60405180910390a35050505050565b600080fd5b600073ffffffffffffffffffffffffffffffffffffffff82169050919050565b60006111d0826111a5565b9050919050565b6111e0816111c5565b81146111eb57600080fd5b50565b6000813590506111fd816111d7565b92915050565b6000819050919050565b61121681611203565b811461122157600080fd5b50565b6000813590506112338161120d565b92915050565b600080600060608486031215611252576112516111a0565b5b6000611260868287016111ee565b9350506020611271868287016111ee565b925050604061128286828701611224565b9150509250925092565b600081519050919050565b600082825260208201905092915050565b6000819050602082019050919050565b6112c1816111c5565b82525050565b6112d081611203565b82525050565b7f4e487b7100000000000000000000000000000000000000000000000000000000600052602160045260246000fd5b60038110611316576113156112d6565b5b50565b600081905061132782611305565b919050565b600061133782611319565b9050919050565b6113478161132c565b82525050565b60008115159050919050565b6113628161134d565b82525050565b6101008201600082015161137f60008501826112b8565b50602082015161139260208501826112b8565b5060408201516113a560408501826112c7565b5060608201516113b860608501826112c7565b5060808201516113cb60808501826112c7565b5060a08201516113de60a08501826112c7565b5060c08201516113f160c085018261133e565b5060e082015161140460e0850182611359565b50505050565b60006114168383611368565b6101008301905092915050565b6000602082019050919050565b600061143b8261128c565b6114458185611297565b9350611450836112a8565b8060005b83811015611481578151611468888261140a565b975061147383611423565b925050600181019050611454565b5085935050505092915050565b600060208201905081810360008301526114a88184611430565b905092915050565b600080604083850312156114c7576114c66111a0565b5b60006114d5858286016111ee565b92505060206114e685828601611224565b9150509250929050565b6114f9816111c5565b82525050565b61150881611203565b82525050565b6115178161132c565b82525050565b6115268161134d565b82525050565b600061010082019050611542600083018b6114f0565b61154f602083018a6114f0565b61155c60408301896114ff565b61156960608301886114ff565b61157660808301876114ff565b61158360a08301866114ff565b61159060c083018561150e565b61159d60e083018461151d565b9998505050505050505050565b60006020820190506115bf60008301846114ff565b92915050565b6000602082840312156115db576115da6111a0565b5b60006115e9848285016111ee565b91505092915050565b6000806000806080858703121561160c5761160b6111a0565b5b600061161a878288016111ee565b945050602061162b87828801611224565b935050604061163c87828801611224565b925050606061164d87828801611224565b91505092959194509250565b7f4e487b7100000000000000000000000000000000000000000000000000000000600052603260045260246000fd5b600082825260208201905092915050565b7f496e76616c69642072656369657665722e000000000000000000000000000000600082015250565b60006116cf601183611688565b91506116da82611699565b602082019050919050565b600060208201905081810360008301526116fe816116c2565b9050919050565b7f536869706d656e74206973206e6f7420696e207472616e7369742e0000000000600082015250565b600061173b601b83611688565b915061174682611705565b602082019050919050565b6000602082019050818103600083015261176a8161172e565b9050919050565b7f536869706d656e7420616c726561647920706169642e00000000000000000000600082015250565b60006117a7601683611688565b91506117b282611771565b602082019050919050565b600060208201905081810360008301526117d68161179a565b9050919050565b7f536869706d656e74206973206e6f742070656e64696e672e0000000000000000600082015250565b6000611813601883611688565b915061181e826117dd565b602082019050919050565b6000602082019050818103600083015261184281611806565b9050919050565b7f536869706d656e7420616c726561647920696e207472616e7369742e00000000600082015250565b600061187f601c83611688565b915061188a82611849565b602082019050919050565b600060208201905081810360008301526118ae81611872565b9050919050565b7f5061796d656e7420616d6f756e74206d757374206d617463682074686520707260008201527f6963652e00000000000000000000000000000000000000000000000000000000602082015250565b6000611911602483611688565b915061191c826118b5565b604082019050919050565b6000602082019050818103600083015261194081611904565b9050919050565b7f4e487b7100000000000000000000000000000000000000000000000000000000600052601160045260246000fd5b600061198182611203565b91507fffffffffffffffffffffffffffffffffffffffffffffffffffffffffffffffff82036119b3576119b2611947565b5b600182019050919050565b60006060820190506119d360008301866114ff565b6119e060208301856114ff565b6119ed60408301846114ff565b94935050505056fea2646970667358221220f2025e5f04c59c4b5c3a69c9bbdd549e9d4813d75ae188f781ac281c51e3cb3464736f6c63430008120033",
  "linkReferences": {},
  "deployedLinkReferences": {}
}